:020000040800F2
:1000000070060020290200083102000833020008AF
:10001000350200083702000839020008000000001D
:100020000000000000000000000000003B0200088B
:100030003D020008000000003F0200089D03000888
:10004000430200084302000843020008430200087C
:10005000430200084302000843020008430200086C
:10006000430200084302000843020008430200085C
:10007000430200084302000843020008430200084C
:10008000430200084302000843020008430200083C
:10009000430200084302000843020008430200082C
:1000A000430200084302000843020008430200081C
:1000B000430200084302000843020008430200080C
:1000C00043020008430200084302000843020008FC
:1000D00043020008430200084302000843020008EC
:1000E00043020008430200084302000843020008DC
:1000F00043020008430200084302000843020008CC
:1001000043020008430200084302000843020008BB
:1001100043020008430200084302000843020008AB
:10012000430200084302000843020008430200089B
:10013000430200084302000843020008430200088B
:10014000430200084302000843020008430200087B
:10015000430200084302000843020008430200086B
:10016000430200084302000843020008430200085B
:100170004302000843020008430200080000000098
:10018000430200084302000800F002F800F03CF8C7
:100190000AA090E8000C82448344AAF10107DA45E2
:1001A00001D100F031F8AFF2090EBAE80F0013F0F8
:1001B000010F18BFFB1A43F0010318475404000055
:1001C00074040000103A24BF78C878C1FAD85207E6
:1001D00024BF30C830C144BF04680C6070470000C1
:1001E0000023002400250026103A28BF78C1FBD840
:1001F000520728BF30C148BF0B6070471FB500F0E1
:10020000F5F91FBD10B510BD00F031F81146FFF72C
:10021000F5FF00F099F900F04FF803B4FFF7F2FF93
:1002200003BC00F057F80000094880470948004720
:10023000FEE7FEE7FEE7FEE7FEE7FEE7FEE7FEE796
:10024000FEE7FEE704480549054A064B70470000F3
:100250006504000889010008700000207006002075
:10026000700200207002002070477047704775468A
:1002700000F02CF8AE4605006946534620F0070012
:10028000854618B020B5FFF7DDFFBDE820404FF0F0
:1002900000064FF000074FF000084FF0000B21F070
:1002A0000701AC46ACE8C009ACE8C009ACE8C0093D
:1002B000ACE8C0098D46704710B50446AFF3008026
:1002C0002046BDE81040FFF7A8BF00000048704777
:1002D0001000002001491820ABBEFEE726000200F6
:1002E0007047F0B50A4600210023002400BF3DE01E
:1002F000012505FA01F3156805EA03049C4234D18F
:1003000005684F000326BE40B543056015794E00D1
:10031000B5400668354305601579012D02D0157981
:10032000022D16D185684F000326BE40B543856077
:1003300055794E00B540866835438560456801268D
:100340008E40B5434560456896798E40B6B23543D8
:100350004560C5684F000326BE40B543C560D579EA
:100360004E00B540C6683543C560491C1029BFD34F
:10037000F0BD4183704701837047000029B1064AF0
:1003800012680243044B1A6004E0034A1268824375
:10039000014B1A60704700003038024010B500F081
:1003A00093F810BD70B50020002202230024022122
:1003B000274D2D6805F00C0020B1042806D0082830
:1003C00034D107E0234D244E356033E0234D224ED7
:1003D00035602FE01E4D2D1F2D68C5F380541C4D38
:1003E0002D1F2D6805F03F0154B11C4DB5FBF1F5F3
:1003F000174E361F3668C6F3881605FB06F209E06D
:10040000144DB5FBF1F5124E361F3668C6F388164B
:1004100005FB06F20E4D2D1F2D68C5F301456D1C21
:100420006B00B2FBF3F50C4E356003E0094D0A4E4C
:10043000356000BF00BF064D2D68C5F30315084E9B
:10044000705D054D2D68C540034E356070BD0000E0
:10045000083802400024F4000C00002000127A004A
:10046000F60500081448006840F47000124908605E
:100470001248006840F001001049086000200F4950
:10048000083108600D4800680D4908400B490860B4
:100490000C48091D0860081F006820F48020091F0F
:1004A0000860002005490C3108604FF000600249E7
:1004B000803908607047000088ED00E00038024095
:1004C000FFFFF6FE103000240448006820B1034806
:1004D0000068401E014908607047000000000020CD
:1004E00001B504490098086000BF02480068002870
:1004F000FBD108BD0000002010B501210846FFF720
:100500003DFF22200D4908600120087100208871FC
:10051000032048710020C8710948FFF7E2FE01215D
:100520001020FFF72BFF0420044908600020087109
:10053000C8710448FFF7D5FE10BD0000040000207C
:100540000000024000100240FFF72CFF2348006823
:100550004FF47A72B0FBF2F1481EB0F1807F01D304
:1005600001201BE0481E4FF0E022506150170F227F
:10057000002804DB13071C0E194B1C5406E013075C
:100580001D0E184B00F00F04241F1D5500BF002046
:100590004FF0E022906107201061002008B100BFF9
:1005A000FEE7FFF7A9FF17E002210F48FFF7E3FE80
:1005B0004FF4FA70FFF794FF02210B48FFF7D9FEC2
:1005C00020210948FFF7D7FE4FF4FA70FFF788FFA4
:1005D00020210548FFF7CDFEE6E700000C000020D3
:1005E00000E400E018ED00E0000002404FF0407031
:1005F000E1EE100A70470000000000000000010258
:1006000003040607080900000000010203040000BB
:10061000300600080000002010000000C40100089F
:10062000400600081000002060060000E0010008FD
:100630000000000000000000000000000024F400A2
:0400000508000229C4
:00000001FF
